:100000000C9463000C948B000C948B000C948B006C
:100010000C948B000C948B000C948B000C948B0034
:100020000C948B000C948B000C948B000C948B0024
:100030000C948B000C948B000C948B000C948B0014
:100040000C9423070C948B000C948B000C948B0065
:100050000C948B000C948B000C948B000C948B00F4
:100060000C946D070C948B00000000002300260008
:10007000290000000008000201000003040700003E
:1000800000000000000000000000250028002B00F8
:1000900000000000240027002A00040404040404D3
:1000A0000404020202020202030303030303010227
:1000B00004081020408001020408102001020408F6
:1000C00010208C08EC0B11241FBECFEFD8E0DEBF50
:1000D000CDBF22E0A6ECB1E001C01D92A73BB20764
:1000E000E1F711E0A0E0B1E0EAECFCE102C005902C
:1000F0000D92A63CB107D9F710E0C2E6D0E004C0EB
:100100002197FE010E94600CC136D107C9F70E94F9
:10011000B7080C94580E0C940000CF93DF9390E036
:10012000FC01E255FF4F249186569F4FFC018491BC
:100130008823C1F090E0880F991FFC01E057FF4F22
:10014000C591D491FC01EA57FF4FA591B4919FB797
:10015000F8948881E22FE0958E2388838C91E823A0
:10016000EC939FBFDF91CF9108950895089508956E
:10017000AF92BF92CF92DF92EF92FF920F931F93B5
:10018000CF93DF936C017B018B01040F151FEB01F3
:100190005E01AE18BF08C017D10759F06991D601AA
:1001A000ED91FC910190F081E02DC6010995892B1C
:1001B00079F7C501DF91CF911F910F91FF90EF90DB
:1001C000DF90CF90BF90AF900895833081F028F4F6
:1001D000813099F08230A9F008958730A9F08830F5
:1001E000C9F08430B1F4809180008F7D03C080918C
:1001F00080008F7780938000089584B58F7784BDC9
:10020000089584B58F7DFBCF8091B0008F77809368
:10021000B00008958091B0008F7DF9CFCF93DF9328
:10022000282F30E0F901EE58FF4F8491F901E25593
:10023000FF4FD491F901E656FF4FC491CC23A1F0B2
:1002400081110E94E500EC2FF0E0EE0FFF1FE8594E
:10025000FF4FA591B491EC91ED2381E090E009F47A
:1002600080E0DF91CF91089580E090E0FACF1F9376
:10027000CF93DF93282F30E0F901EE58FF4F8491A0
:10028000F901E255FF4FD491F901E656FF4FC491B1
:10029000CC23A9F0162F81110E94E500EC2FF0E08D
:1002A000EE0FFF1FEA57FF4FA591B4918FB7F89457
:1002B000EC91111108C0D095DE23DC938FBFDF9144
:1002C000CF911F910895DE2BF8CF3FB7F89480911E
:1002D000790290917A02A0917B02B0917C0226B5BE
:1002E000A89B05C02F3F19F00196A11DB11D3FBF6E
:1002F000BA2FA92F982F8827BC01CD01620F711D3D
:10030000811D911D42E0660F771F881F991F4A9536
:10031000D1F708958F929F92AF92BF92CF92DF92C2
:10032000EF92FF924B015C010E9465016B017C0121
:100330000E9465016C197D098E099F09683E734012
:1003400081059105A8F321E0821A9108A108B1085E
:1003500088EEC80E83E0D81EE11CF11C81149104C4
:10036000A104B10429F7FF90EF90DF90CF90BF90E8
:10037000AF909F908F90089520910702260F33270A
:10038000331F21323105ECF420915002FC0190E042
:1003900080E0243069F082E00895A0910702219165
:1003A000AC0149515E4FA40FB52FB11D2C9301969E
:1003B000861798F380910702680F6093070280E028
:1003C000089581E008951092500281E080934F02D9
:1003D00010922A0261E082E10E94370161E083E12C
:1003E0000E943701E9EBF0E080818E7F808380817D
:1003F0008D7F808388E48093B80085E48093BC007F
:100400000895CF93DF9391E09093E6018823B9F0AC
:10041000C091B800D091BA008091BC008A7B8093D3
:10042000BC0060E082E10E94370160E083E10E944D
:1004300037010E94E301D093BA00C093B800DF9166
:10044000CF9108950895E091880280918702E8177E
:1004500030F4F0E0EA53FE4F808190E008958FEF92
:100460009FEF089590918802809187022FEF3FEFD0
:10047000981748F4E92FF0E0EA53FE4F208130E06E
:100480009F5F90938802C90108958091870290919F
:100490008802891B990B0895CF92DF92EF92FF9209
:1004A0000F931F93CF93DF937C01CB018A0120919F
:1004B0005602222389F0EB016B01C40ED51ECC1528
:1004C000DD0569F06991D701ED91FC910190F08112
:1004D000E02DC7010995F3CF642F0E94BC01C8012C
:1004E000DF91CF911F910F91FF90EF90DF90CF9010
:1004F0000895CF93DF931F92CDB7DEB76983209124
:1005000056022223F9F020918502203258F021E092
:1005100030E0FC013383228390E080E00F90DF9194
:10052000CF91089580918602E82FF0E0E95AFD4FBF
:10053000998190838F5F809386028093850281E00A
:1005400090E0ECCF61E0CE0101960E94BC01F7CFB4
:10055000CF92DF92EF92FF920F931F93CF93DF938F
:10056000FC01C48121E020935602C09377021092CF
:100570008602109285028385682B8FE892E00E94A4
:100580007902D0918502D13208F092C00E946501B3
:100590006B017C0180915002811165C082E08093E3
:1005A000500281E080934F028FEF80934E021092B1
:1005B0004D02D0934C02A7E5B2E0ECE2F2E080E01D
:1005C000D81385C010922B0280912B02CC0FC82B20
:1005D000C0932B0280912A02813009F07CC01092D6
:1005E0002A020E9465016B017C0180912B0280939D
:1005F000BB008091520290915302A0915402B0919D
:100600005502892B8A2B8B2B99F00E946501009152
:1006100052021091530220915402309155026C19EC
:100620007D098E099F090617170728073907E0F18A
:100630008091BC0083FDD9CF85EC8093BC000E94E3
:1006400065016B017C0180915002823009F445C044
:1006500080914E028F3F61F180914E02803241F1D4
:1006600080914E0225C08091520290915302A09138
:100670005402B0915502892B8A2B8B2B09F48ACF17
:100680000E94650100915202109153022091540280
:10069000309155026C197D098E099F0906171707BD
:1006A0002807390708F076CF809151020E94010295
:1006B000109286021092850210925602DF91CF911D
:1006C0001F910F91FF90EF90DF90CF9008959D9133
:1006D00091938F5F75CF85EEB0CF8091520290914C
:1006E0005302A0915402B0915502892B8A2B8B2B77
:1006F00009F4A9CF0E9465010091520210915302A2
:1007000020915402309155026C197D098E099F0980
:10071000061717072807390708F095CFC5CF90E0CF
:1007200080E008950F931F93CF938C01C62F0E94F2
:10073000A8026C2F6460C8010E94A8026C2F6B7F16
:10074000C8010E94A80283EC90E00197F1F7CF91D5
:100750001F910F9108950F931F93CF93DF938C01F7
:10076000D62FC42F607F642B0E94920380E1D89F14
:10077000B00111246C2BC801DF91CF911F910F9113
:100780000C949203CF93DF93CDB7DEB728970FB6C3
:10079000F894DEBF0FBECDBF98E0E5E4F1E0DE01E6
:1007A000119601900D929A95E1F79091AF029617EC
:1007B00010F46FEF690F262F30E0220F331F41E056
:1007C00050E04C0F5D1F240F351FF9016081680F49
:1007D000606840E087EA92E028960FB6F894DEBFA2
:1007E0000FBECDBFDF91CF910C94AB0340E061E031
:1007F00087EA92E00E94AB038BE39FE10197F1F758
:10080000089541E00E94AB0381E090E008950F93CA
:100810001F93CF93DF938B0198E0899FB001112440
:10082000606440E087EA92E00E94AB03E801085F61
:100830001F4F699187EA92E00E940104C017D10717
:10084000C1F7DF91CF911F910F910895FC010190A5
:100850000020E9F73197AF01481B590BBC0187EA2B
:1008600092E00C94B8000F931F93CF93DF938C0109
:10087000EB01FC01808191810097E1F06881798131
:1008800061157105A9F0428153812C813D81421788
:10089000530770F00E94510E8C819D81F801958361
:1008A00084831D821C82DF91CF911F910F91089547
:1008B0000E94020D88819981F801918380838A8149
:1008C0009B81938382838C819D819583848319820C
:1008D00018821B821A82E5CFCF93DF93EC018881C7
:1008E0009981009711F00E94020D198218821D82D1
:1008F0001C821B821A82DF91CF910895FC018081B6
:100900009181009711F00C94020D08950F931F939D
:10091000CF93DF93EC0188819981009759F02A8168
:100920003B812617370730F081E0DF91CF911F918F
:100930000F9108958B016F5F7F4F0E948B0D009781
:1009400059F0998388831B830A832C813D81232B53
:1009500059F7FC011082E8CF80E0E7CF0F931F9397
:10096000CF93DF93EC010C811D810F5F1F4FB80106
:100970000E948604882391F0288139818C819D8191
:100980006BE671E0820F931F0E94510E1D830C8352
:10099000CE01DF91CF911F910F910895CE010E945A
:1009A0006C04F6CFEF92FF920F931F93CF93DF93D8
:1009B000EC01FB01E080F180E114F10411F104810C
:1009C000158101151105A9F08C819D81080F191F52
:1009D000B801CE010E948604882399F028813981CC
:1009E0008C819D81B701820F931F0E94510E1D8340
:1009F0000C83CE01DF91CF911F910F91FF90EF906B
:100A00000895CE010E946C04F4CFEF92FF920F93F1
:100A10001F93CF93DF93EC017B018A01BA010E94FF
:100A2000860481110BC0CE010E946C04CE01DF91BF
:100A3000CF911F910F91FF90EF9008951D830C832C
:100A4000B701888199810E94510EF0CFEF92FF92F9
:100A50000F931F93CF93DF93CDB7DEB762970FB697
:100A6000F894DEBF0FBECDBF8C01CB01F80111821F
:100A7000108213821282158214824AE09E012F5F37
:100A80003F4F7901B9010E94F40BF701019000205A
:100A9000E9F73197AF014E195F09B701C8010E940C
:100AA000050562960FB6F894DEBF0FBECDBFDF918D
:100AB000CF911F910F91FF90EF900895FB01DC0102
:100AC00011961C921E9213961C921E9212971596C6
:100AD0001C921E9214978617970749F060817181C6
:100AE0006115710521F0448155810C940505089527
:100AF000FC01118210821382128215821482FB0182
:100B000001900020E9F73197AF01461B570B0C9479
:100B10000505CF92DF92EF92FF920F931F93CF9331
:100B2000DF93CDB7DEB76E970FB6F894DEBF0FBE7A
:100B3000CDBF6C01FB017A01890180819181CC9745
:100B400049F411821082DA018D919C9111970196DE
:100B50008D939C93D7018D919C911197CC9749F4DB
:100B60001D921C92D8018D919C91119701968D93A5
:100B70009C93D8018D919C911197489711F41D92E7
:100B80001C9260817181CE016A3071050CF0A2C0A7
:100B900007960E9426056DE671E0CE0101960E943F
:100BA0007805BE01695F7F4FCE0101960E94D20495
:100BB000BC01CE010D960E945E05CE0101960E94F9
:100BC0007E04CE0107960E947E04F7016081718148
:100BD000CE016A3071050CF081C007960E9426058F
:100BE0006DE671E0CE0101960E947805BE01695F55
:100BF0007F4FCE0101960E94D204BC01CE014396E4
:100C00000E945E05CE0101960E947E04CE010796E9
:100C10000E947E04D8016D917C91CE016A307105ED
:100C20000CF060C007960E9426056DE671E0CE01CB
:100C300001960E947805BE01695F7F4FCE01019643
:100C40000E94D204BC01CE0149960E945E05CE01ED
:100C500001960E947E04CE0107960E947E04BE018A
:100C6000675E7F4FCE0101960E945E05CE01019620
:100C70000E94AE04BE016D5E7F4F0E94D2040E94AE
:100C8000AE04BE01635F7F4F0E94D204BC01C60167
:100C90000E945E05CE0101960E947E04CE01499617
:100CA0000E947E04CE0143960E947E04CE010D96E2
:100CB0000E947E04C6016E960FB6F894DEBF0FBE8A
:100CC000CDBFDF91CF911F910F91FF90EF90DF90FB
:100CD000CF9008950D960E94260577CF43960E94E7
:100CE000260598CF49960E942605B9CF0F931F93EA
:100CF000CF93DF9300D000D000D0CDB7DEB79FB741
:100D0000F89440917D0250917E0260917F02709133
:100D100080029FBF0091890210918A0220918B026C
:100D200030918C02401B510B620B730B49345340C2
:100D30006105710508F444C0182F2FB7F89480910D
:100D40007D0290917E02A0917F02B09180022FBF20
:100D50008093890290938A02A0938B02B0938C02B5
:100D600080913101909132010196909332018093EC
:100D7000310125E331E043E351E061E371E0CE016D
:100D800001960E948905BE016F5F7F4F81EA92E064
:100D90000E943304CE0101960E947E04112381F04B
:100DA00061E086E00E94C2034091A5025091A60234
:100DB0006091A1027091A20287EA92E00E94B800BD
:100DC00026960FB6F894DEBF0FBECDBFDF91CF9150
:100DD0001F910F91089585ED8093BC008091520280
:100DE00090915302A0915402B09155020796A11D13
:100DF000B11D23E0B695A795979587952A95D1F7CC
:100E00002091BC0024FD03C010925002089540912F
:100E10005202509153026091540270915502452B39
:100E2000462B472B69F30097A105B10541F025E357
:100E30002A95F1F700000197A109B109E1CF80914E
:100E400051020C9401021F920F920FB60F921124BF
:100E50002F933F938F939F93AF93BF9380917D0286
:100E600090917E02A0917F02B09180023091780231
:100E700023E0230F2D3758F50196A11DB11D2093B6
:100E8000780280937D0290937E02A0937F02B093BC
:100E900080028091790290917A02A0917B02B091B8
:100EA0007C020196A11DB11D8093790290937A0274
:100EB000A0937B02B0937C02BF91AF919F918F91E1
:100EC0003F912F910F900FBE0F901F90189526E81D
:100ED000230F0296A11DB11DD2CF1F920F920FB604
:100EE0000F9211242F933F934F935F936F937F93B0
:100EF0008F939F93AF93BF93EF93FF938091B9002C
:100F0000887F803609F44AC0F0F5883209F4A7C01A
:100F100018F5803109F49BC0B8F4882309F4F9C0AE
:100F2000883009F494C0FF91EF91BF91AF919F91E8
:100F30008F917F916F915F914F913F912F910F9082
:100F40000FBE0F901F901895883109F488C0803229
:100F500051F780934E0214C0803409F49DC040F4D0
:100F60008033B9F38833F9F680934E0285ECB0C034
:100F7000803509F485C0883509F496C0883499F61F
:100F80000E94EB06D0CF883909F48CC038F5883739
:100F900029F050F4883611F0803729F683E08093E9
:100FA00050021092290257C0883809F47BC080395A
:100FB00019F0803809F0B7CF80912902803208F00B
:100FC00071C0E091290281E08E0F80932902809107
:100FD000BB00F0E0E75FFD4F80833DC0803B39F010
:100FE000E0F4803A09F479C0883A09F09CCF84E0B3
:100FF000809350021092080210920702E09183023F
:10100000F091840209958091070281110FC081E05F
:10101000809307021092E70109C0803C09F4A6CF33
:10102000883C09F4A3CF883B09F07DCFE09108020A
:1010300081E08E0F80930802F0E0E951FE4F80813D
:101040008093BB00909108028091070229C0809193
:101050002B028093BB0085EC8093BC0064CF909101
:101060004D0280914C02981758F5E0914D0281E0B5
:101070008E0F80934D02F0E0E45DFD4F8081E9CF5B
:10108000E0914D0281E08E0F80934D028091BB0074
:10109000F0E0E45DFD4F808390914D0280914C0221
:1010A0009817C8F285E8D8CFE0914D0281E08E0F05
:1010B00080934D028091BB00F0E0E45DFD4F8083A2
:1010C00080914F0281115CCF81E080932A0284EAF3
:1010D0008093BC001092500226CF85EC8093BC0018
:1010E0001092500280912902803230F4E09129025E
:1010F000F0E0E75FFD4F10826091290270E0E0911F
:101100008102F091820289E092E009951092290211
:101110000ACF10924E0234CFEFE8F2E0138212822F
:1011200088EE93E0A0E0B0E084839583A683B78344
:1011300081E591E091838083E7EAF2E013821282F5
:1011400083E691E09183808387E2848384E18187D1
:1011500084E0828713866FEA71E081EA92E00E9460
:1011600078056FEA71E08BE992E00C947805CF93F3
:10117000DF93CDB7DEB762970FB6F894DEBF0FBE30
:10118000CDBF789484B5826084BD84B5816084BD10
:1011900085B5826085BD85B5816085BD80916E0015
:1011A000816080936E001092810080918100826046
:1011B0008093810080918100816080938100809183
:1011C00080008160809380008091B1008460809372
:1011D000B1008091B00081608093B00080917A006E
:1011E000846080937A0080917A00826080937A0094
:1011F00080917A00816080937A0080917A00806883
:1012000080937A001092C10080E00E948D0081E0FE
:101210000E948D0082E00E948D0083E00E948D007C
:101220002FB7F89480917D0290917E02A0917F0269
:10123000B09180022FBF8093890290938A02A0937D
:101240008B02B0938C021092880210928702109247
:101250008602109285020E94E30185EB90E0909354
:1012600084028093830286EB90E0909382028093C5
:1012700081021092AC028091B102823018F098E0A5
:101280009093AC028093AF0262E370E080E090E064
:101290000E948A016091B20287EA92E00E94A8024D
:1012A00068EE73E080E090E00E948A0160E387EAE4
:1012B00092E00E9492030BE416E4C8010197F1F753
:1012C00060E387EA92E00E949203C8010197F1F778
:1012D00060E387EA92E00E94920383E592E001973F
:1012E000F1F760E287EA92E00E9492036091AC021B
:1012F000606240E087EA92E00E94AB0384E0809362
:10130000AD0240E06CE087EA92E00E94AB030E94ED
:10131000F60382E08093AE0240E066E087EA92E066
:101320000E94AB0340E062E087EA92E00E94AB03D8
:101330008BE39FE10197F1F788E08093B20260E0D0
:1013400087EA92E00E94A80290E0292E90E0392ED0
:101350009091300180918D02981709F479C0109214
:1013600030010E94F60360E271E080E00E94070411
:1013700068E171E081E00E94070460E171E082E0D1
:101380000E94070468E071E083E00E94070460E0C7
:1013900071E084E00E94070460E081E00E94C203E3
:1013A0008FE691E00E94260463E081E00E94C20380
:1013B0008FE691E00E94260461E080E00E94C20373
:1013C00060E087EA92E00E94010462E080E00E940F
:1013D000C20360E087EA92E00E94010461E083E1D9
:1013E0000E94C20360E087EA92E00E94010462E08A
:1013F00083E10E94C20360E087EA92E00E94010458
:1014000060E080E00E94C20361E087EA92E00E940F
:10141000010460E083E10E94C20362E087EA92E097
:101420000E94010463E080E00E94C20363E087EA57
:1014300092E00E94010463E083E10E94C20364E041
:1014400087EA92E00E9401048091300180938D022E
:1014500081E00E94760680E00E940E018C01892BBB
:1014600009F089C00E94F60382E00E940E017C010F
:1014700083E00E940E016C0180E00E94760660E02D
:1014800080E00E94C20382E891E00E94260468E2A4
:1014900071E080E00E94070461E080E00E94C203E6
:1014A00082E991E00E94260462E080E00E94C2038B
:1014B0008EE991E00E94260463E087E00E94C20367
:1014C00087EA91E00E94260482E00E940E014C010E
:1014D00083E00E940E015C0181149104C1F4EF28A5
:1014E000B1F00330110514F40F5F1F4FF12CE12C04
:1014F000E016F10664F46E2D83E10E94C2038EEAC9
:1015000091E00E9426048FEFE81AF80AF1CFA114A7
:10151000B104C1F4CD28B1F017FD02C0015011098A
:1015200083E0E82EF12C0E151F0564F46E2D83E187
:101530000E94C2038EEA91E00E94260481E0E81A2C
:10154000F108F1CF602F83E10E94C20360E087EAD7
:1015500092E00E94010481E00E940E017401650185
:10156000892B09F089CF0115110509F408C1033051
:10157000110509F40EC180918E02882309F4F8C088
:101580000E94F60363E080E00E94C20380EB91E0DA
:101590000E94260467E371E080E00E94070460E097
:1015A00087E00E94C20360E087EA92E00E940104A3
:1015B00082E00E940E015C0183E00E940E017C012A
:1015C00080E00E940E012C0182E00E940E0183E067
:1015D0000E940E0161EA72E0CE0107960E945E054C
:1015E00080913501909136019A8B898B80913301DE
:1015F00090913401988B8F878091310190913201C5
:101600009E878D8707E010E061E086E00E94C203BC
:101610004B855C856F81788587EA92E00E94B800EF
:1016200080E00E940E013C0182E00E940E014C010C
:1016300083E00E940E016C016114710481F445285D
:1016400071F060E0802F0E94C2038EEA91E00E9458
:1016500026040D3011050CF0A0C00D5F1F4F60E097
:10166000802F0E94C20360E087EA92E00E9401049A
:101670008114910461F5AB2851F10A30110509F488
:101680008FC00D30110509F493C007301105F9F42E
:1016900089899A89009709F001979A8B898B9E0115
:1016A0002F5E3F4FAE01415F5F4FBE01635F7F4FD3
:1016B000CE0101960E948905BE016F5F7F4FCE016A
:1016C00007960E943304CE0101960E947E04C11445
:1016D000D10451F5EF2841F10A30110509F470C029
:1016E0000D30110509F472C007301105E9F489893C
:1016F0009A8901969A8B898B9E012F5E3F4FAE018E
:10170000415F5F4FBE01635F7F4FCE0101960E9434
:101710008905BE016F5F7F4FCE0107960E9433049B
:10172000CE0101960E947E0481E00E940E015401C8
:1017300076012301892B09F067CF81E08093300186
:1017400010928E0289899A8990933601809335018F
:101750008F85988990933401809333018D859E8580
:101760009093320180933101CE0107960E947E044E
:101770002114310409F4ECCD0E940000E5CD81E094
:1017800080938E026CE870E080E090E00E948A0115
:10179000F2CE81E080933001EECE07E010E05FCF23
:1017A0008F859889009709F00197988B8F8777CF5D
:1017B0008D859E85009709F001979E878D876FCF55
:1017C0008F8598890196988B8F8796CF8D859E857A
:1017D00001969E878D8790CF8BE992E00E947E04D0
:1017E00081EA92E00C947E04BB274A3031F49923BD
:1017F00022F4BDE2909581959F4F0C94000CBB277D
:10180000FB015527AA27880F991FAA1FA41710F0BC
:10181000A41B83955051B9F7A05DAA3308F0A95DC8
:10182000A193009779F7B111B1931192CB010C9468
:10183000190CDC01FC01672F71917723E1F73297D6
:1018400004C07C916D9370836291AE17BF07C8F39B
:1018500008952F923F924F925F926F927F928F9254
:101860009F92AF92BF92CF92DF92EF92FF920F932F
:101870001F93CF93DF93CDB7DEB7CA1BDB0B0FB639
:10188000F894DEBF0FBECDBF09942A8839884888F6
:101890005F846E847D848C849B84AA84B984C8848C
:1018A000DF80EE80FD800C811B81AA81B981CE0F83
:1018B000D11D0FB6F894DEBF0FBECDBFED01089568
:1018C000EE0FFF1F0590F491E02D09940F931F93E5
:1018D000CF93DF938230910510F482E090E0E091A5
:1018E000B502F091B60230E020E0B0E0A0E0309721
:1018F00099F42115310509F44AC0281B390B24300D
:101900003105D8F58A819B816115710589F1FB014B
:1019100093838283FE0111C0408151810281138132
:1019200048175907E0F04817590799F4109761F0E4
:1019300012960C93129713961C933296CF01DF9157
:10194000CF911F910F9108950093B5021093B602A5
:10195000F4CF2115310551F04217530738F0A90192
:10196000DB019A01BD01DF01F801C1CFEF01F9CF21
:101970009093B6028093B502CDCFFE01E20FF31F24
:10198000819391932250310939832883D7CF2091B5
:10199000B3023091B402232B41F4209141013091E4
:1019A00042013093B4022093B30220913F01309161
:1019B00040012115310541F42DB73EB74091430157
:1019C00050914401241B350BE091B302F091B40215
:1019D000E217F307A0F42E1B3F0B2817390778F006
:1019E000AC014E5F5F4F2417350748F04E0F5F1F65
:1019F0005093B4024093B302819391939FCFF0E050
:101A0000E0E09CCFCF93DF930097E9F0FC013297A1
:101A100013821282A091B502B091B602ED0130E0BE
:101A200020E01097A1F420813181820F931F209133
:101A3000B3023091B4022817390709F061C0F0935E
:101A4000B402E093B302DF91CF910895EA01CE177B
:101A5000DF07E8F54A815B819E0141155105B1F729
:101A6000E901FB83EA8349915991C40FD51FEC1713
:101A7000FD0761F4808191810296840F951FE90131
:101A800099838883828193819B838A83F0E0E0E05D
:101A900012968D919C9113970097B9F52D913C91D9
:101AA0001197CD010296820F931F2091B3023091BE
:101AB000B4022817390739F6309751F51092B6025B
:101AC0001092B502B093B402A093B302BCCFD383FB
:101AD000C28340815181840F951FC817D90761F4D3
:101AE0004E5F5F4F88819981480F591F5183408312
:101AF0008A819B81938382832115310509F0B0CFC0
:101B0000F093B602E093B5029ECFFD01DC01C0CF99
:101B100013821282D7CFB0E0A0E0E1E9FDE00C949F
:101B20002B0C8C01009751F4CB010E94660C8C01A8
:101B3000C801CDB7DEB7E0E10C94470CFC01E60F1D
:101B4000F71F9C0122503109E217F30708F49DC0EA
:101B5000D901CD91DC911197C617D70798F0C53000
:101B6000D10530F3CE0104978617970708F3C61BFB
:101B7000D70B2297C193D1936D937C93CF010E9491
:101B8000020DD6CF5B01AC1ABD0A4C018C0E9D1E16
:101B9000A091B502B091B602512C412CF12CE12C50
:101BA000109731F58091B3029091B4028815990590
:101BB00009F05CC04616570608F058C080913F01F6
:101BC00090914001009741F48DB79EB74091430139
:101BD00050914401841B950BE817F90708F055C094
:101BE000F093B402E093B302F90171836083A0CF54
:101BF0008D919C91119712966C90129713967C90F0
:101C00001397A815B90559F56C0142E0C40ED11C13
:101C1000CA14DB0420F1AC014A195B09DA011296FF
:101C2000159780F06282738251834083D9016D934E
:101C30007C93E114F10471F0D7011396FC93EE93B9
:101C4000129776CF22968C0F9D1FF9019183808386
:101C5000F301EFCFF093B602E093B50269CF4816D7
:101C6000590608F42C017D01D3019ACFCB010E94C3
:101C7000660C7C01009749F0AE01B8010E94480E45
:101C8000C8010E94020D870153CF10E000E050CF41
:101C9000FB01DC0102C001900D9241505040D8F789
:101CA0000895FB01DC0101900D920020E1F70895F9
:101CB00010E0C2E6D0E004C0FE010E94600C219654
:0A1CC000C336D107C9F7F894FFCF2F
:101CCA000404041C000000000404040700000000CF
:101CDA000000001C040404040000000704040404B7
:101CEA0004040404040404040103070F07030100A5
:101CFA00011E001E00100000040404150E0400005A
:101D0A0000B70280000000400014005400000000E8
:101D1A000079024C028F032202450232022302009A
:101D2A000000000104B8008F03B7003A0030002D0C
:101D3A002D2D2D2D2D2D2D2D2D2D2D2D2D2D2D2DC9
:101D4A002D00313A2054494D452043555252454EB3
:101D5A005400323A20434F554E54494E4700333AC5
:101D6A0020414C41524D0043616E63656C00200076
:101D7A00505245535320444F4E4520544F2041431F
:061D8A0043455054000027
:00000001FF
