:100000000C9464000C948C000C948C000C948C0068
:100010000C948C000C948C000C948C000C94CA09E9
:100020000C948C000C948C000C948C000C948C0020
:100030000C948C000C948C000C948C000C948C0010
:100040000C944C0A0C948C000C948C000C948C0036
:100050000C948C000C948C000C948C000C948C00F0
:100060000C94960A0C948C000000000024002700D9
:100070002A0000000000250028002B0000000000DE
:1000800023002600290004040404040404040202DA
:100090000202020203030303030301020408102007
:1000A0004080010204081020010204081020000012
:1000B0000008000201000003040700000000000027
:1000C00000000200B50B001611241FBECFEFD8E0D0
:1000D000DEBFCDBF23E0A8E0B2E001C01D92AA318F
:1000E000B207E1F712E0A0E0B1E0E0EFF1E302C017
:1000F00005900D92A830B107D9F710E0C3E6D0E023
:1001000004C02197FE010E94F316C236D107C9F739
:100110000E94E00B0C94EB180C94000008950895D5
:100120000895AF92BF92CF92DF92EF92FF920F931A
:100130001F93CF93DF936C017B018B01040F151F7D
:10014000EB015E01AE18BF08C017D10759F06991E5
:10015000D601ED91FC910190F081E02DC601099549
:10016000892B79F7C501DF91CF911F910F91FF90F6
:10017000EF90DF90CF90BF90AF900895FC01448145
:100180005581608171818AE093E00C949100833005
:1001900081F028F4813099F08230A9F008958730F9
:1001A000A9F08830C9F08430B1F4809180008F7D4F
:1001B00003C0809180008F7780938000089584B57C
:1001C0008F7784BD089584B58F7DFBCF8091B0007B
:1001D0008F778093B00008958091B0008F7DF9CF24
:1001E000CF93DF93282F30E0F901E255FF4F849140
:1001F000F901E656FF4FD491F901EA57FF4FC49138
:10020000CC23A1F081110E94C700EC2FF0E0EE0F8B
:10021000FF1FE458FF4FA591B491EC91ED2381E0CD
:1002200090E009F480E0DF91CF91089580E090E0C4
:10023000FACF1F93CF93DF93282F30E0F901E255D7
:10024000FF4F8491F901E656FF4FD491F901EA5727
:10025000FF4FC491CC23A9F0162F81110E94C70033
:10026000EC2FF0E0EE0FFF1FEE58FF4FA591B49179
:100270008FB7F894EC91111108C0D095DE23DC9370
:100280008FBFDF91CF911F910895DE2BF8CFCF93D1
:10029000DF9390E0FC01E656FF4F24918A579F4F71
:1002A000FC0184918823D1F090E0880F991FFC0114
:1002B000E859FF4FA591B491FC01EE58FF4FC5914D
:1002C000D49161110EC09FB7F8948C91E22FE09504
:1002D0008E238C932881E223E8839FBFDF91CF9107
:1002E00008958FB7F894EC91E22BEC938FBFF6CF83
:1002F0003FB7F8948091C9029091CA02A091CB02B5
:10030000B091CC0226B5A89B05C02F3F19F00196ED
:10031000A11DB11D3FBFBA2FA92F982F8827BC015F
:10032000CD01620F711D811D911D42E0660F771F87
:10033000881F991F4A95D1F708958F929F92AF9287
:10034000BF92CF92DF92EF92FF924B015C010E942D
:1003500078016B017C010E9478016C197D098E097E
:100360009F09683E734081059105A8F321E0821A38
:100370009108A108B10888EEC80E83E0D81EE11CE0
:10038000F11C81149104A104B10429F7FF90EF90AE
:10039000DF90CF90BF90AF909F908F9008952FB730
:1003A000F8946091C5027091C6028091C702909145
:1003B000C8022FBF089520915302260F3327331F01
:1003C00021323105ECF420919C02FC0190E080E0A8
:1003D000243069F082E00895A09153022191AC018C
:1003E0004D5C5D4FA40FB52FB11D2C930196861760
:1003F00098F380915302680F6093530280E0089550
:1004000081E0089510929C0281E080939B021092FB
:10041000760261E082E10E94190161E083E10E94BD
:100420001901E9EBF0E080818E7F808380818D7FF0
:10043000808388E48093B80085E48093BC000895AD
:10044000CF93DF9391E0909332028823B9F0C0916B
:10045000B800D091BA008091BC008A7B8093BC0028
:1004600060E082E10E94190160E083E10E941901CD
:100470000E940202D093BA00C093B800DF91CF91DE
:1004800008950895E091DB028091DA02E81730F4D4
:10049000F0E0EE5EFD4F808190E008958FEF9FEFDA
:1004A00008959091DB028091DA022FEF3FEF9817C9
:1004B00048F4E92FF0E0EE5EFD4F208130E09F5FD1
:1004C0009093DB02C90108958091DA029091DB02DA
:1004D000891B990B0895CF92DF92EF92FF920F93B1
:1004E0001F93CF93DF937C01CB018A012091A2025D
:1004F000222389F0EB016B01C40ED51ECC15DD055E
:1005000069F06991D701ED91FC910190F081E02DA6
:10051000C7010995F3CF642F0E94DB01C801DF9169
:10052000CF911F910F91FF90EF90DF90CF900895A2
:10053000CF93DF931F92CDB7DEB769832091A202DC
:100540002223F9F02091D802203258F021E030E047
:10055000FC013383228390E080E00F90DF91CF9104
:1005600008958091D902E82FF0E0ED55FD4F998173
:1005700090838F5F8093D9028093D80281E090E0CE
:10058000ECCF61E0CE0101960E94DB01F7CFCF9264
:10059000DF92EF92FF920F931F93CF93DF93FC01B3
:1005A000C48121E02093A202C093C3021092D90219
:1005B0001092D8028385682B82EF92E00E94980205
:1005C000D091D802D13208F092C00E9478016B011C
:1005D0007C0180919C02811165C082E080939C0225
:1005E00081E080939B028FEF80939A021092990290
:1005F000D0939802A3EAB2E0E8E7F2E080E0D813F3
:1006000085C01092770280917702CC0FC82BC093DF
:10061000770280917602813009F07CC010927602D8
:100620000E9478016B017C01809177028093BB006E
:1006300080919E0290919F02A091A002B091A10290
:10064000892B8A2B8B2B99F00E94780100919E02B6
:1006500010919F022091A0023091A1026C197D0996
:100660008E099F090617170728073907E0F18091BF
:10067000BC0083FDD9CF85EC8093BC000E9478013B
:100680006B017C0180919C02823009F445C080910D
:100690009A028F3F61F180919A02803241F18091FC
:1006A0009A0225C080919E0290919F02A091A00283
:1006B000B091A102892B8A2B8B2B09F48ACF0E943F
:1006C000780100919E0210919F022091A00230912A
:1006D000A1026C197D098E099F09061717072807C3
:1006E000390708F076CF80919D020E942002109277
:1006F000D9021092D8021092A202DF91CF911F91DD
:100700000F91FF90EF90DF90CF9008959D9191937E
:100710008F5F75CF85EEB0CF80919E0290919F0242
:10072000A091A002B091A102892B8A2B8B2B09F4F6
:10073000A9CF0E94780100919E0210919F02209102
:10074000A0023091A1026C197D098E099F0906173C
:1007500017072807390708F095CFC5CF90E080E04C
:1007600008950F931F93CF938C01C62F0E94C70249
:100770006C2F6460C8010E94C7026C2F6B7FC80198
:100780000E94C70283EC90E00197F1F7CF911F918F
:100790000F9108950F931F93CF93DF938C01D62F62
:1007A000C42F607F642B0E94B10380E1D89FB00109
:1007B00011246C2BC801DF91CF911F910F910C94E4
:1007C000B10340E061E08AE093E00E94CA038BE35A
:1007D0009FE10197F1F70895CF93DF93CDB7DEB78F
:1007E00028970FB6F894DEBF0FBECDBF98E0EDE5B9
:1007F000F1E0DE01119601900D929A95E1F790914A
:100800001203961710F46FEF690F262F30E0220FB6
:10081000331F41E050E04C0F5D1F240F351FF901DD
:100820006081680F606840E08AE093E028960FB628
:10083000F894DEBF0FBECDBFDF91CF910C94CA03F9
:1008400041E00E94CA0381E090E008950F931F9356
:10085000CF93DF938B0198E0899FB00111246064EE
:1008600040E08AE093E00E94CA03E801085F1F4F5E
:1008700069918AE093E00E942004C017D107C1F774
:10088000DF91CF911F910F910895FC0101900020FD
:10089000E9F73197AF01481B590BBC018AE093E09F
:1008A0000C9491000F931F93CF93DF938C01EB0176
:1008B000FC01808191810097E1F068817981611567
:1008C0007105A9F0428153812C813D814217530764
:1008D00070F00E94E4188C819D81F80195838483D7
:1008E0001D821C82DF91CF911F910F9108950E946C
:1008F000951788819981F801918380838A819B81F2
:10090000938382838C819D8195838483198218824D
:100910001B821A82E5CFCF93DF93EC018881998106
:10092000009711F00E949517198218821D821C826F
:100930001B821A82DF91CF910895FC018081918101
:10094000009711F00C94951708950F931F93CF9370
:10095000DF93EC0188819981009759F02A813B81CE
:100960002617370730F081E0DF91CF911F910F916B
:1009700008958B016F5F7F4F0E941E18009759F0FA
:10098000998388831B830A832C813D81232B59F70C
:10099000FC011082E8CF80E0E7CFEF92FF920F9347
:1009A0001F93CF93DF936115710541F480E0DF91D0
:1009B000CF911F910F91FF90EF9008954115510530
:1009C000B1F07B01EC010C811D81040F151FB801F2
:1009D0000E94A504882351F3288139818C819D814F
:1009E000B701820F931F0E94E4181D830C8381E0DE
:1009F000DECFCF93DF93EC01FB0101900020E9F7FC
:100A00003197AF01461B570B0E94CD04811103C0E3
:100A1000CE010E948B04CE01DF91CF910895CF9338
:100A2000DF93EC01FB0144815581608171810E945B
:100A3000CD04811103C0CE010E948B04CE01DF9151
:100A4000CF910895EF92FF920F931F93CF93DF936F
:100A5000EC017B018A01BA010E94A50481110BC03F
:100A6000CE010E948B04CE01DF91CF911F910F9197
:100A7000FF90EF9008951D830C83B70188819981C1
:100A80000E94E418F0CFEF92FF920F931F93CF9341
:100A9000DF93CDB7DEB762970FB6F894DEBF0FBE17
:100AA000CDBF8C01CB01F80111821082138212821A
:100AB000158214824AE09E012F5F3F4F7901B901F0
:100AC0000E940816F70101900020E9F73197AF0165
:100AD0004E195F09B701C8010E94220562960FB640
:100AE000F894DEBF0FBECDBFDF91CF911F910F9164
:100AF000FF90EF900895FB01DC0111961C921E926D
:100B000013961C921E92129715961C921E92149781
:100B10008617970749F0608171816115710521F091
:100B2000448155810C9422050895FC0111821082A4
:100B30001382128215821482FB0101900020E9F7D2
:100B40003197AF01461B570B0C942205CF92DF92D1
:100B5000EF92FF920F931F93CF93DF93CDB7DEB742
:100B60006E970FB6F894DEBF0FBECDBF6C01FB01D0
:100B70007A01890180819181CC9749F41182108298
:100B8000DA018D919C91119701968D939C93D701D9
:100B90008D919C911197CC9749F41D921C92D8018C
:100BA0008D919C91119701968D939C93D8018D9175
:100BB0009C911197489711F41D921C92608171814C
:100BC000CE016A3071050CF0A6C007960E9443055D
:100BD00063EA71E0CE0101960E949505BE01695F4E
:100BE0007F4FCE0101960E940F05BC01CE010D96EC
:100BF0000E947B05CE0101960E949D04CE010796BE
:100C00000E949D04F70160817181CE016A307105F7
:100C10000CF085C007960E94430563EA71E0CE019F
:100C200001960E949505BE01695F7F4FCE01019636
:100C30000E940F05BC01CE0143960E947B05CE01A8
:100C400001960E949D04CE0107960E949D04D80142
:100C50006D917C91CE016A3071050CF064C00796ED
:100C60000E94430563EA71E0CE0101960E9495055A
:100C7000BE01695F7F4FCE0101960E940F05BC0146
:100C8000CE0149960E947B05CE0101960E949D04EB
:100C9000CE0107960E949D04BE01675E7F4FCE0184
:100CA00001960E947B0565EA71E0CE0101960E94E3
:100CB000F904BE016D5E7F4F0E940F0565EA71E089
:100CC0000E94F904BE01635F7F4F0E940F05BC01C3
:100CD000C6010E947B05CE0101960E949D04CE01B3
:100CE00049960E949D04CE0143960E949D04CE0128
:100CF0000D960E949D04C6016E960FB6F894DEBF55
:100D00000FBECDBFDF91CF911F910F91FF90EF905C
:100D1000DF90CF9008950D960E94430573CF4396C0
:100D20000E94430594CF49960E944305B5CF2F9268
:100D30003F924F925F926F927F928F929F92AF926B
:100D4000BF92CF92DF92EF92FF921F93CF93DF93E8
:100D5000CDB7DEB760970FB6F894DEBF0FBECDBF3C
:100D6000182F84E00E94F000892B39F488E00E945B
:100D7000F000019711F4109256010E94CF01C0902B
:100D8000DC02D090DD02E090DE02F090DF026C1910
:100D90007D098E099F09693E73408105910508F41C
:100DA000EAC10E94CF016093DC027093DD02809360
:100DB000DE029093DF028091090190910A01019671
:100DC00090930A018093090122E531E04EE451E05D
:100DD00069E071E0CE0101960E94A605BE016F5F39
:100DE0007F4F84E093E00E945204CE0101960E945E
:100DF0009D04112341F061E086E00E94EC0384E051
:100E000093E00E94BE0020915201309153018091E5
:100E10005001909151012817390709F0ACC1209178
:100E20004E0130914F0180914C0190914D01281756
:100E3000390709F0A0C18091090190910A01CC976E
:100E40000CF099C180915601882309F494C18091D6
:100E5000ED02882309F48FC185E791E098878F839D
:100E6000A5E6B1E0BE87AD87EF81F885619171910C
:100E7000F887EF8388EE93E00E948316788B6F8764
:100E8000CB01092E000CAA0BBB0B89879A87AB8775
:100E9000BC87AD85BE852D903D90BE87AD87809186
:100EA0000001883009F076C0E2ECF0E0149117FD03
:100EB0005AC161E088E00E944701112319F0123005
:100EC00009F073C14101B12CA12C60E072E18AE705
:100ED00090E0A50191010E94B91629013A017A0119
:100EE0006901F1E0CF1AD108E108F1082FEFC2162D
:100EF000D104E104F10409F00CF40CC160E472E4E3
:100F00008FE090E0A50191010E94B91669017A0174
:100F100081E0C81AD108E108F108123009F0AFC029
:100F200082E09FEFC916D104E104F10409F00CF44A
:100F3000F2C160E970ED83E090E0A50191010E94AB
:100F4000B91669017A01A1E0CA1AD108E108F108CD
:100F500083E0BFEFCB16D104E104F10409F00CF4F7
:100F6000DAC168E478EE81E090E0A50191010E9489
:100F7000B91669017A0191E0C91AD108E108F108AE
:100F8000AFEFCA16D104E104F10411F00CF09AC0DD
:100F900084E0C1C18F3F09F0E6C088E08093000182
:100FA000E2ECF0E014911F3F09F4DDC0113029F1AB
:100FB00050F0123009F440C017FDD5C061E088E060
:100FC0000E9447017CCF14BC15BC84B5826084BDEF
:100FD00085B5816085BDEEE8F0E08491E82FF0E012
:100FE000EE0FFF1FEE58FF4F85919491E2EAF0E07B
:100FF00084918093090210E05CCF109280001092DF
:1010000081008091810088608093810080918100BF
:10101000816080938100EEE8F0E08491E82FF0E0B9
:10102000EE0FFF1FEE58FF4F85919491E2EAF0E03A
:101030008491809308023DCF1092B0001092B100CD
:101040008091B00082608093B0008091B100816097
:101050008093B100EEE8F0E08491E82FF0E0EE0F2D
:10106000FF1FEE58FF4F859194919093CE0280938D
:10107000CD02E2EAF0E084918093CF021ACFEFEF45
:10108000CE16D104E104F10409F00CF48CC068E43C
:1010900078EE81E090E0A50191010E94B916690106
:1010A0007A01F1E0CF1AD108E108F108112309F41F
:1010B00001C1EFEFCE16D104E104F10409F00CF404
:1010C00067CF01C164E274EF80E090E0A501940174
:1010D0000E94B91669017A0181E0C81AD108E108B5
:1010E000F10885E09FEFC916D104E104F10409F08D
:1010F00008F411C162E17AE780E090E0A501940173
:101100000E94B91669017A01F1E0CF1AD108E1080D
:10111000F108EAC081E01111FEC095B5987F892BD6
:1011200085BD89859A85AB85BC852FEF3FEFA901E9
:10113000892B8A2B8B2B09F074C0113009F47FC0E6
:10114000123009F48EC011110EC0C7BC20930E02DC
:1011500030930F02409310025093110280916E0061
:10116000826080936E00A5E8B1E0EF81F885AE174C
:10117000BF0709F079CE60960FB6F894DEBF0FBEB8
:10118000CDBFDF91CF911F91FF90EF90DF90CF9077
:10119000BF90AF909F908F907F906F905F904F9097
:1011A0003F902F90089582E0B6CFB12CA12C60E043
:1011B00072E18AE790E0A50191010E94B9166901E8
:1011C0007A01B1E0CB1AD108E108F10891E0C1142D
:1011D000D104E1E0EE06F10484F068E478EE81E009
:1011E00090E0A50191010E94B91669017A01F1E030
:1011F000CF1AD108E108F10893E0113009F091CF3E
:1012000080918100887F892B8093810089859A85D0
:10121000AB85BC852FEF3FEFA901892B8A2B8B2B48
:1012200071F09101220F331FAF85B8890E94D81643
:1012300028EE33E040E050E00E9497167ECFD09237
:101240008900C092880020930A0230930B024093D9
:101250000C0250930D0280916F00826080936F00AA
:1012600082CFC092B3002093D0023093D10240933A
:10127000D2025093D30280917000826080937000FC
:1012800072CF730162018AE0F594E794D794C79412
:101290008A95D1F731E0C31AD108E108F10885E059
:1012A0003CCF8FEFC816D104E104F10409F048F7F0
:1012B00084E033CF83E0BFEFCB16D104E104F10427
:1012C00009F00CF42ACF62E17AE780E090E0A50112
:1012D00094010E94B91669017A01A1E0CA1AD108E5
:1012E000E108F1081123E9F286E02FEFC216D104DC
:1012F000E104F10481F078F0730162019AE0F59461
:10130000E794D794C7949A95D1F7F1E0CF1AD10812
:10131000E108F10887E09091B100987F892B8093D4
:10132000B100FFCE85ED8093BC0080919E0290912C
:101330009F02A091A002B091A1020796A11DB11D2C
:1013400023E0B695A795979587952A95D1F7209193
:10135000BC0024FD03C010929C02089540919E029F
:1013600050919F026091A0027091A102452B462BE3
:10137000472B69F30097A105B10541F025E32A95B4
:10138000F1F700000197A109B109E1CF80919D0219
:101390000C9420021F920F920FB60F9211242F93DC
:1013A0003F934F935F936F937F938F939F93AF93ED
:1013B000BF93EF93FF938091D0029091D102A091BF
:1013C000D202B091D302892B8A2B8B2BD1F1909131
:1013D000CF02E091CD02F091CE02808189278083F7
:1013E0008091D0029091D102A091D202B091D3020B
:1013F000181619061A061B069CF48091D0029091CB
:10140000D102A091D202B091D3020197A109B109F2
:101410008093D0029093D102A093D202B093D302D2
:10142000FF91EF91BF91AF919F918F917F916F91BC
:101430005F914F913F912F910F900FBE0F901F9092
:10144000189580910001E2ECF0E0E4919FEF909319
:101450000001E13051F030F0E23069F060E00E94CC
:101460001901DECF10926E00F9CF90916F009D7F31
:1014700090936F00F3CF909170009D7F90937000D8
:1014800091E09093B0009091B100987F9460909318
:10149000B1001092B300E2CF1F920F920FB60F92DD
:1014A00011242F933F938F939F93AF93BF9380917A
:1014B000C5029091C602A091C702B091C8023091B6
:1014C000C40223E0230F2D3758F50196A11DB11D4D
:1014D0002093C4028093C5029093C602A093C702D2
:1014E000B093C8028091C9029091CA02A091CB0228
:1014F000B091CC020196A11DB11D8093C9029093B9
:10150000CA02A093CB02B093CC02BF91AF919F913E
:101510008F913F912F910F900FBE0F901F901895B4
:1015200026E8230F0296A11DB11DD2CF1F920F9264
:101530000FB60F9211242F933F934F935F936F93A6
:101540007F938F939F93AF93BF93EF93FF9380917C
:10155000B900887F803609F44AC0F0F5883209F472
:10156000A7C018F5803109F49BC0B8F4882309F4AA
:10157000F9C0883009F494C0FF91EF91BF91AF9109
:101580009F918F917F916F915F914F913F912F919B
:101590000F900FBE0F901F901895883109F488C0E6
:1015A000803251F780939A0214C0803409F49DC0B0
:1015B00040F48033B9F38833F9F680939A0285ECCE
:1015C000B0C0803509F485C0883509F496C08834E8
:1015D00099F60E949209D0CF883909F48CC038F569
:1015E000883729F050F4883611F0803729F683E0E7
:1015F00080939C021092750257C0883809F47BC012
:10160000803919F0803809F0B7CF809175028032A7
:1016100008F071C0E091750281E08E0F8093750231
:101620008091BB00F0E0EB5AFD4F80833DC0803BD2
:1016300039F0E0F4803A09F479C0883A09F09CCF97
:1016400084E080939C021092540210925302E09125
:10165000D602F091D70209958091530281110FC0F3
:1016600081E0809353021092330209C0803C09F458
:10167000A6CF883C09F4A3CF883B09F07DCFE09149
:10168000540281E08E0F80935402F0E0ED5CFD4F38
:1016900080818093BB00909154028091530229C0B5
:1016A000809177028093BB0085EC8093BC0064CF6F
:1016B0009091990280919802981758F5E0919902BB
:1016C00081E08E0F80939902F0E0E858FD4F808111
:1016D000E9CFE091990281E08E0F80939902809189
:1016E000BB00F0E0E858FD4F808390919902809113
:1016F00098029817C8F285E8D8CFE091990281E066
:101700008E0F809399028091BB00F0E0E858FD4F66
:10171000808380919B0281115CCF81E0809376026F
:1017200084EA8093BC0010929C0226CF85EC8093C3
:10173000BC0010929C0280917502803230F4E091DE
:101740007502F0E0EB5AFD4F10826091750270E077
:10175000E091D402F091D50285E592E009951092CE
:1017600075020ACF10929A0234CFE2EFF2E01382B0
:10177000128288EE93E0A0E0B0E084839583A68394
:10178000B78389E891E091838083EAE0F3E01382F4
:1017900012828BE991E09183808387E2848384E1E4
:1017A000818784E08287138666E072E084E093E0BC
:1017B0000E94950566E072E08EEF92E00C9495052C
:1017C000CF93DF93CDB7DEB7A7970FB6F894DEBF00
:1017D0000FBECDBF789484B5826084BD84B581602E
:1017E00084BD85B5826085BD85B5816085BD8091EC
:1017F0006E00816080936E00109281008091810064
:10180000826080938100809181008160809381005B
:10181000809180008160809380008091B10084601D
:101820008093B1008091B00081608093B00080917E
:101830007A00846080937A0080917A00826080933D
:101840007A0080917A00816080937A0080917A009A
:10185000806880937A001092C10060E080E00E946E
:10186000470160E081E00E94470160E082E00E9461
:10187000470160E083E00E94470160E084E00E944D
:1018800047010E94CF016093DC027093DD028093D8
:10189000DE029093DF021092DB021092DA021092C5
:1018A000D9021092D8020E9402028EE890E0909332
:1018B000D7028093D6028FE890E09093D502809370
:1018C000D40210920F0380911403823018F098E034
:1018D00090930F038093120362E370E080E090E046
:1018E0000E949D01609115038AE093E00E94C70267
:1018F00068EE73E080E090E00E949D0160E38AE082
:1019000093E00E94B1030BE416E4C8010197F1F7DC
:1019100060E38AE093E00E94B103C8010197F1F708
:1019200060E38AE093E00E94B10383E592E00197CF
:10193000F1F760E28AE093E00E94B10360910F0347
:10194000606240E08AE093E00E94CA0384E08093F2
:10195000100340E06CE08AE093E00E94CA030E941A
:10196000E10382E08093110340E066E08AE093E0C7
:101970000E94CA0340E062E08AE093E00E94CA034A
:101980008BE39FE10197F1F788E08093150360E016
:101990008AE093E00E94C70284E00E94F000892B55
:1019A00039F488E00E94F000019711F4109256017A
:1019B00080E00E94F0008C01892B09F09BC00E94FE
:1019C000E10382E00E94F0007C0183E00E94F000CD
:1019D0004C0180E00E94970684E00E94F000892B71
:1019E00039F488E00E94F000019711F4109256013A
:1019F00060E080E00E94EC0387EA91E00E944504E9
:101A000061E071E080E00E94260461E080E00E94D5
:101A1000EC0387EB91E00E94450462E080E00E94C5
:101A2000EC0383EC91E00E94450463E087E00E94B0
:101A3000EC038CEC91E00E94450482E00E94F000EF
:101A40005C0183E00E94F0006C01A114B104B9F4C0
:101A5000EF28A9F00330110514F40F5F1F4FF12C8C
:101A6000E12C6E2D83E10E94EC0385E092E00E9460
:101A700045042FEFE21AF20A0E151F0591F7C11463
:101A8000D104C9F48928B9F00115110511F00150EC
:101A9000110933E0E32EF12C0E151F0564F46E2DB1
:101AA00083E10E94EC0385E092E00E94450481E01E
:101AB000E81AF108F1CF602F83E10E94EC0360E0A7
:101AC0008AE093E00E94200481E00E94F00075010A
:101AD0004601892B09F07DCF0130110509F4AEC50F
:101AE0000CF09DC5012B09F4A5C581E00E94F00012
:101AF000892BD9F38091E002882309F4FAC00E946F
:101B0000E10363E080E00E94EC0383ED91E00E943A
:101B1000450464E471E080E00E94260460E087E010
:101B20000E94EC0360E08AE093E00E94200482E0DF
:101B30000E94F0005C0183E00E94F0007C0180E0E4
:101B40000E94F0002C0164E073E0CE0107960E9431
:101B50007B0580915201909153019A8F898F8091DA
:101B60004E0190914F019C8B8B8B8091090190913C
:101B70000A019E878D8707E010E084E00E94F00054
:101B8000892B39F488E00E94F000019711F410923B
:101B9000560161E086E00E94EC03CE0107960E94A8
:101BA000BE0080E00E94F0003C0182E00E94F00054
:101BB0004C0183E00E94F0006C016114710481F417
:101BC000452871F060E0802F0E94EC0385E092E0F0
:101BD0000E9445040D3011050CF038C50D5F1F4FF4
:101BE00060E0802F0E94EC0360E08AE093E00E94B6
:101BF00020048114910461F5AB2851F10A301105DC
:101C000009F427C50D30110509F42BC5073011055E
:101C1000F9F4898D9A8D009709F001979A8F898F31
:101C20009E01275E3F4FAE014D5E5F4FBE01635F79
:101C30007F4FCE0101960E94A605BE016F5F7F4FC8
:101C4000CE0107960E945204CE0101960E949D0487
:101C5000C114D10451F5EF2841F10A30110509F4FE
:101C600008C50D30110509F40AC507301105E9F45E
:101C7000898D9A8D01969A8F898F9E01275E3F4F9D
:101C8000AE014D5E5F4FBE01635F7F4FCE01019697
:101C90000E94A605BE016F5F7F4FCE0107960E948E
:101CA0005204CE0101960E949D0481E00E94F00042
:101CB000540176012301892B09F05FCF81E08093E5
:101CC00043011092E002898D9A8D90935301809385
:101CD00052018B899C8990934F0180934E018D8591
:101CE0009E8590930A0180930901CE0107960E9478
:101CF0009D049091E1029DA3992309F421C10E94C2
:101D0000E10364E471E080E00E94260460E089E081
:101D10000E94EC0360E08AE093E00E94200463E00C
:101D200080E00E94EC0383ED91E00E94450480E096
:101D30000E94F0005C0182E00E94F0002C0183E030
:101D40000E94F0009FA38EA3E0905001F0905101FB
:101D500000914C0110914D01B801CE010A301105DE
:101D60000CF093C407960E94430563EA71E0CE012C
:101D700001960E949505BE01695F7F4FCE010196D5
:101D80000E940F05BC01CE0149960E947B05CE0141
:101D900001960E949D04CE0107960E949D046091C9
:101DA000500170915101CE016A3071050CF071C47F
:101DB00007960E94430563EA71E0CE0101960E94F6
:101DC0009505BE01695F7F4FCE0101960E940F0508
:101DD000BC01CE0143960E947B05CE0101960E9474
:101DE0009D04CE0107960E949D0429E0C22ED12CAD
:101DF00080E00E94970684E00E94F000892B39F46D
:101E000088E00E94F000019711F41092560180E0E2
:101E10000E94F0004C0182E00E94F0003C0183E04F
:101E20000E94F0001C018114910491F4AB2881F010
:101E300060E08C2D0E94EC0385E092E00E94450456
:101E400029E0C216D10409F428C499E0C92ED12C86
:101E500060E08C2D0E94EC0360E08AE093E00E9439
:101E6000200461E088E00E94EC03BE016D5E7F4FBC
:101E7000CE0101960E947B0565EA71E0CE010196D4
:101E80000E94F904BE01675E7F4F0E940F050E9409
:101E9000BE00CE0101960E949D046114710461F49C
:101EA000452851F089E0C816D10409F4FAC39CE032
:101EB000C916D10409F435C42114310471F48EA17A
:101EC0009FA1892B51F099E0C916D10409F456C499
:101ED0002CE0C216D10409F494C481E00E94F00001
:101EE000540123013FA22EA2892B09F081CF81E06A
:101EF0008093ED02809343011092E102F092510130
:101F0000E092500110934D0100934C0180915201D9
:101F1000909153018E159F0509F0A2C480914E0146
:101F200090914F018017910709F09AC410925601C1
:101F3000CE0143960E949D04CE0149960E949D04C5
:101F4000909143018091E202981709F479C01092B0
:101F500043010E94E1036BE271E080E00E942604ED
:101F600063E271E081E00E9426046BE171E082E0AF
:101F70000E94260463E171E083E00E9426046BE086
:101F800071E084E00E94260460E081E00E94EC039E
:101F900088EE91E00E94450463E081E00E94EC033A
:101FA00088EE91E00E94450461E080E00E94EC032D
:101FB00060E08AE093E00E94200462E080E00E94FA
:101FC000EC0360E08AE093E00E94200461E083E19A
:101FD0000E94EC0360E08AE093E00E94200462E04B
:101FE00083E10E94EC0360E08AE093E00E94200419
:101FF00060E080E00E94EC0361E08AE093E00E94F0
:10200000200460E083E10E94EC0362E08AE093E058
:102010000E94200463E080E00E94EC0363E08AE019
:1020200093E00E94200463E083E10E94EC0364E0FB
:102030008AE093E00E942004809143018093E202B1
:1020400081E00E94970660914C0170914D01CE0194
:102050006A3071050CF008C401960E94430563EADA
:1020600071E0CE0107960E949505BE016F5F7F4F1C
:10207000CE0107960E940F05BC01CE014F960E942B
:102080007B05CE0107960E949D04CE0101960E9419
:102090009D046091500170915101CE016A3071052B
:1020A0000CF0E6C301960E94430563EA71E0CE019D
:1020B00007960E949505BE016F5F7F4FCE01079680
:1020C0000E940F05BC01CE0149960E947B05CE01FE
:1020D00007960E949D04CE0101960E949D04809166
:1020E000ED02882309F4D4C36BE371E085E00E941C
:1020F000260462E082E00E94EC0365E08AE093E05F
:102100000E94200462E083E00E94EC03BE01675E4F
:102110007F4FCE0101960E947B0565EA71E0CE01FA
:1021200001960E94F904BE01615E7F4F0E940F0577
:102130000E94BE00CE0101960E949D0463E371E0FF
:1021400086E00E94260462E08CE00E94EC0366E0D8
:102150008AE093E00E94200462E08DE00E94EC039C
:1021600080914C0190914D01E0915001F09151010D
:1021700020914E0130914F014091520150915301F5
:102180008F01041B150B17FF05C08F01085E1F4F41
:10219000041B150BBC01621B730BE417F50709F058
:1021A00026C5161617060CF467C38217930709F4A1
:1021B0001CC56115710551F0CC96BC01621B730BF7
:1021C00007E110E06A3071050CF059C3CE010196A9
:1021D0000E94430563EA71E0CE0107960E949505CF
:1021E000BE016F5F7F4FCE0107960E940F05BC01B5
:1021F000CE0143960E947B05CE0107960E949D0466
:10220000CE0101960E949D04B801CE010A3011054D
:102210000CF03AC301960E94430563EA71E0CE01D7
:1022200007960E949505BE016F5F7F4FCE0107960E
:102230000E940F05BC01CE010D960E947B05CE01C8
:1022400007960E949D04CE0101960E949D04BE0146
:10225000635F7F4FCE0101960E947B056BEF71E0BB
:10226000CE0101960E94F904BE016D5E7F4F0E946F
:102270000F056DEF71E00E94F904BC01CE010796D5
:102280000E947B05CE0101960E949D04CE010D9611
:102290000E949D04CE0143960E949D04CE010796A4
:1022A0000E94BE00CE0107960E949D04CE01499671
:1022B0000E949D04CE014F960E949D043090EC0236
:1022C000332009F42CC40E94E10364E471E080E04F
:1022D0000E94260460E089E00E94EC0360E08AE04E
:1022E00093E00E94200463E080E00E94EC0383ED11
:1022F00091E00E94450480E00E94F0004C0182E0E1
:102300000E94F0005C0183E00E94F0006C0160918B
:10231000EA027091EB02CE016A3071050CF0C9C27D
:1023200007960E94430563EA71E0CE0101960E9480
:102330009505BE01695F7F4FCE0101960E940F0592
:10234000BC01CE0149960E947B05CE0101960E94F8
:102350009D04CE0107960E949D046091E802709151
:10236000E902CE016A3071050CF0A7C207960E94FF
:10237000430563EA71E0CE0101960E949505BE0116
:10238000695F7F4FCE0101960E940F05BC01CE010F
:1023900043960E947B05CE0101960E949D04CE01CA
:1023A00007960E949D0409E010E084E00E94F0007E
:1023B000892B39F488E00E94F000019711F4109203
:1023C000560180E00E9497067090E702772009F49A
:1023D000A1C00E94CF012091E3023091E40240911C
:1023E000E5025091E602621B730B840B950B693E6C
:1023F000734081059105C8F0E090EA02F090EB028D
:102400000E94CF016093E3027093E4028093E5029F
:102410009093E6028091E8029091E902019797FD7E
:1024200050C29093E9028093E8026091EA027091B1
:10243000EB02CE016A3071050CF054C207960E947F
:10244000430563EA71E0CE0101960E949505BE0145
:10245000695F7F4FCE0101960E940F05BC01CE013E
:102460000D960E947B05F72CBE01635F7F4FCE0166
:1024700049960E945204CE010D960E949D04FF20B1
:1024800041F0CE0101960E949D04CE0107960E9464
:102490009D046091E8027091E902CE016A307105F5
:1024A0000CF025C207960E94430563EA71E0CE0155
:1024B00001960E949505BE01695F7F4FCE0101968E
:1024C0000E940F05BC01CE010D960E947B05BE0146
:1024D000635F7F4FCE0143960E945204CE010D965A
:1024E0000E949D04772041F0CE0101960E949D0438
:1024F000CE0107960E949D048091EA029091EB0222
:10250000892B41F48091E8029091E902892B11F422
:102510001092E70280E00E94F0002C0182E00E940D
:10252000F0003C0183E00E94F0007C014114510462
:1025300081F4892871F060E0802F0E94EC0385E02F
:1025400092E00E9445040930110509F4D5C109E063
:1025500010E08091E70260E0882309F4D0C1802F69
:102560000E94EC0384E092E00E94450461E088E070
:102570000E94EC03BE01675E7F4FCE0101960E9470
:102580007B0565EA71E0CE0101960E94F904BE0167
:102590006D5E7F4F0E940F050E94BE00CE01019626
:1025A0000E949D046114710451F4AB2841F009307C
:1025B000110509F4ADC10C30110509F4ECC1E114A9
:1025C000F10451F4CD2841F00930110509F415C288
:1025D0000C30110509F45BC281E00E94F000892BE8
:1025E000D1F48091E8029091E902892B39F480912D
:1025F000EA029091EB02892B09F482C281E0809378
:10260000E7020E94CF016093E3027093E40280939B
:10261000E5029093E602670153014201C6CE023003
:10262000110581F00330110509F05FCA81E0809344
:1026300043015BCA81E08093E00257CA81E0809346
:10264000EC0253CA81E08093E1024FCA07E010E038
:10265000C7CA8B899C89009709F001979C8B8B8B4B
:10266000DFCA8D859E85009709F001979E878D872B
:10267000D7CA8B899C8901969C8B8B8BFECA8D85D2
:102680009E8501969E878D87F8CA49960E944305CC
:1026900086CB43960E944305A8CB8CE0C82ED12C54
:1026A000D7CBE114F10439F021E0E21AF1088AE015
:1026B000E816F1047CF5B701CE0107960E944305A8
:1026C00063EA71E0CE0101960E949505BE01695F43
:1026D0007F4FCE0101960E940F05BC01CE010D96E1
:1026E0000E947B05BDA0BE01635F7F4FCE01439674
:1026F0000E945204CE010D960E949D04BB2009F455
:10270000DBCBCE0101960E949D04CE0107960E946C
:102710009D04D2CBB701CE010D960E944305B12C8A
:10272000E2CF0115110529F0015011090A301105F8
:10273000F4F4B801CE0107960E94430563EA71E004
:10274000CE0101960E949505BE01695F7F4FCE01C3
:1027500001960E940F05BC01CE010D960E947B05DB
:10276000BDA0BE01635F7F4FCE014996C1CFB801C6
:10277000CE010D960E944305B12CF3CF87E1E816F8
:10278000F10471F09FEFE91AF90A2AE0E216F10468
:102790004CF0B701CE010D960E944305B12C1AC032
:1027A000F12CE12CB701CE0107960E94430563EAA4
:1027B00071E0CE0101960E949505BE01695F7F4FD1
:1027C000CE0101960E940F05BC01CE010D960E941C
:1027D0007B05BDA0BE01635F7F4FCE0143960E9483
:1027E0005204CE010D960E949D04BB2009F475CBC6
:1027F000CE0101960E949D04CE0107960E949D0481
:102800006CCB0C33110561F00F5F1F4F0A301105BF
:102810004CF0B801CE010D960E944305B12C1AC0B0
:1028200010E000E0B801CE0107960E94430563EA7C
:1028300071E0CE0101960E949505BE01695F7F4F50
:10284000CE0101960E940F05BC01CE010D960E949B
:102850007B05BDA0BE01635F7F4FCE014996BFCF10
:1028600081E08093560164CB4F960E94430511CCC2
:1028700049960E94430533CC10E000E0A3CCCE0182
:1028800043960E944305C0CC0D960E944305DFCCC1
:1028900062E081E00E94EC038FEF91E00E9445042A
:1028A00062E08DE00E94EC0380E092E00E9445042B
:1028B000FDCC49960E94430550CD43960E944305A6
:1028C00072CD8BE390E09093E9028093E802E114EB
:1028D000F10419F091E0E91AF108F092EB02E092AC
:1028E000EA02A3CD0D960E944305F12CBDCD0D96B5
:1028F0000E944305712CEBCD0CE010E02ACE802F16
:102900000E94EC0360E08AE093E00E9420042ECE57
:102910006091EA027091EB02CE016115710549F0F8
:10292000615071097093EB026093EA026A3071059D
:102930006CF507960E94430563EA71E0CE010196AB
:102940000E949505BE01695F7F4FCE0101960E94EE
:102950000F05BC01CE010D960E947B05B32CBE0174
:10296000635F7F4FCE0149960E945204CE010D96BF
:102970000E949D04BB2009F422CECE0101960E9444
:102980009D04CE0107960E949D0419CE0D960E94CB
:102990004305B12CE4CF6091E8027091E902CE01C9
:1029A0006115710549F0615071097093E9026093F6
:1029B000E8026A307105E4F407960E94430563EA71
:1029C00071E0CE0101960E949505BE01695F7F4FBF
:1029D000CE0101960E940F05BC01CE010D960E940A
:1029E0007B05B32CBE01635F7F4FCE014396BCCF06
:1029F0000D960E944305B12CF5CF6091EA027091CB
:102A0000EB0263367105A1F51092EB021092EA0217
:102A100070E060E0CE0107960E94430563EA71E032
:102A2000CE0101960E949505BE01695F7F4FCE01E0
:102A300001960E940F05BC01CE010D960E947B05F8
:102A4000D32CBE01635F7F4FCE0149960E94520492
:102A5000CE010D960E949D04DD2009F4BDCDCE016E
:102A600001960E949D04CE0107960E949D04B4CD5C
:102A70006F5F7F4F7093EB026093EA026A307105DB
:102A80004CF2CE010D960E944305D12CDACF609115
:102A9000E8027091E9026C33710519F51092E902B0
:102AA0001092E80270E060E0CE0107960E944305B4
:102AB00063EA71E0CE0101960E949505BE01695F4F
:102AC0007F4FCE0101960E940F05BC01CE010D96ED
:102AD0000E947B05D32CBE01635F7F4FCE014396DE
:102AE000B5CF6F5F7F4F7093E9026093E8026A3061
:102AF0007105D4F2CE010D960E944305D12CEBCF87
:102B000081E08093ED02809343011092EC02CE01AC
:102B100043960E949D04CE0149960E949D0484E044
:102B20000E94F0008C01809154019091550108178A
:102B3000190771F00E94CF016093EE027093EF02CB
:102B40008093F0029093F102109355010093540189
:102B50000E94CF01C090EE02D090EF02E090F00210
:102B6000F090F1026C197D098E099F09613D774053
:102B70008105910560F1CD28CE28CF2841F1012BA8
:102B800031F58091ED0291E089278093ED0220914B
:102B900052013091530180915001909151012817B9
:102BA0003907F9F420914E0130914F0180914C0189
:102BB00090914D0128173907A1F4109256011092F7
:102BC000EE021092EF021092F0021092F10280E0F9
:102BD00090E0892B11F40C94CC0C0E9400000C9412
:102BE000CC0C81E080935601EACF08E110E077FF3A
:102BF000E9CACC96BC01621B730B01501109E2CAF1
:102C00008EEF92E00E949D0484E093E00C949D047A
:102C1000BB274A3031F4992322F4BDE29095819587
:102C20009F4F0C941416BB27FB015527AA27880F2A
:102C3000991FAA1FA41710F0A41B83955051B9F730
:102C4000A05DAA3308F0A95DA193009779F7B111AF
:102C5000B1931192CB010C942D16DC01FC01672F6E
:102C600071917723E1F7329704C07C916D93708363
:102C70006291AE17BF07C8F308952F923F924F920B
:102C80005F926F927F928F929F92AF92BF92CF92FC
:102C9000DF92EF92FF920F931F93CF93DF93CDB705
:102CA000DEB7CA1BDB0B0FB6F894DEBF0FBECDBF7D
:102CB00009942A88398848885F846E847D848C844E
:102CC0009B84AA84B984C884DF80EE80FD800C8157
:102CD0001B81AA81B981CE0FD11D0FB6F894DEBF3A
:102CE0000FBECDBFED010895A29FB001B39FC001FB
:102CF000A39F700D811D1124911DB29F700D811D28
:102D00001124911D089597FB072E16F4009407D007
:102D100077FD09D00E94DF1607FC05D03EF49095A0
:102D200081959F4F0895709561957F4F0895A1E219
:102D30001A2EAA1BBB1BFD010DC0AA1FBB1FEE1F35
:102D4000FF1FA217B307E407F50720F0A21BB30B80
:102D5000E40BF50B661F771F881F991F1A9469F7FC
:102D600060957095809590959B01AC01BD01CF0158
:102D70000895052E97FB1EF400940E94D01657FD6F
:102D800007D00E94971607FC03D04EF40C94D0167F
:102D900050954095309521953F4F4F4F5F4F089587
:102DA00090958095709561957F4F8F4F9F4F0895B7
:102DB0000E947416B7FF0895821B930B0895AA1BF7
:102DC000BB1B51E107C0AA1FBB1FA617B70710F016
:102DD000A61BB70B881F991F5A95A9F78095909548
:102DE000BC01CD010895EE0FFF1F0590F491E02D79
:102DF00009940F931F93CF93DF938230910510F4C2
:102E000082E090E0E0911803F091190330E020E0B7
:102E1000B0E0A0E0309799F42115310509F44AC0DB
:102E2000281B390B24303105D8F58A819B81611527
:102E3000710589F1FB0193838283FE0111C04081FA
:102E400051810281138148175907E0F0481759074B
:102E500099F4109761F012960C93129713961C93A5
:102E60003296CF01DF91CF911F910F91089500937A
:102E7000180310931903F4CF2115310551F04217AF
:102E8000530738F0A901DB019A01BD01DF01F80108
:102E9000C1CFEF01F9CF9093190380931803CDCFE1
:102EA000FE01E20FF31F8193919322503109398380
:102EB0002883D7CF2091160330911703232B41F499
:102EC0002091590130915A01309317032093160332
:102ED00020915701309158012115310541F42DB74A
:102EE0003EB740915B0150915C01241B350BE09192
:102EF0001603F0911703E217F307A0F42E1B3F0B04
:102F00002817390778F0AC014E5F5F4F241735075B
:102F100048F04E0F5F1F50931703409316038193A1
:102F200091939FCFF0E0E0E09CCFCF93DF930097A9
:102F3000E9F0FC01329713821282A0911803B0913C
:102F40001903ED0130E020E01097A1F420813181D8
:102F5000820F931F2091160330911703281739070A
:102F600009F061C0F0931703E0931603DF91CF914E
:102F70000895EA01CE17DF07E8F54A815B819E01DB
:102F800041155105B1F7E901FB83EA834991599154
:102F9000C40FD51FEC17FD0761F480819181029663
:102FA000840F951FE90199838883828193819B8394
:102FB0008A83F0E0E0E012968D919C911397009740
:102FC000B9F52D913C911197CD010296820F931F77
:102FD00020911603309117032817390739F63097D7
:102FE00051F51092190310921803B0931703A09390
:102FF0001603BCCFD383C28340815181840F951FB8
:10300000C817D90761F44E5F5F4F88819981480FD7
:10301000591F518340838A819B8193838283211529
:10302000310509F0B0CFF0931903E09318039ECF58
:10303000FD01DC01C0CF13821282D7CFB0E0A0E047
:10304000E4E2F8E10C943F168C01009751F4CB01B7
:103050000E94F9168C01C801CDB7DEB7E0E10C94EF
:103060005B16FC01E60FF71F9C0122503109E217A5
:10307000F30708F49DC0D901CD91DC911197C617D3
:10308000D70798F0C530D10530F3CE0104978617E5
:10309000970708F3C61BD70B2297C193D1936D9363
:1030A0007C93CF010E949517D6CF5B01AC1ABD0A65
:1030B0004C018C0E9D1EA0911803B0911903512C48
:1030C000412CF12CE12C109731F580911603909151
:1030D00017038815990509F05CC04616570608F0D5
:1030E00058C08091570190915801009741F48DB7D5
:1030F0009EB740915B0150915C01841B950BE817D2
:10310000F90708F055C0F0931703E0931603F9018F
:1031100071836083A0CF8D919C91119712966C90D2
:10312000129713967C901397A815B90559F56C0161
:1031300042E0C40ED11CCA14DB0420F1AC014A19D0
:103140005B09DA011296159780F0628273825183CF
:103150004083D9016D937C93E114F10471F0D701A0
:103160001396FC93EE93129776CF22968C0F9D1FA9
:10317000F90191838083F301EFCFF0931903E0937A
:10318000180369CF4816590608F42C017D01D301B4
:103190009ACFCB010E94F9167C01009749F0AE014D
:1031A000B8010E94DB18C8010E949517870153CF10
:1031B00010E000E050CFFB01DC0102C001900D9255
:1031C00041505040D8F70895FB01DC0101900D9269
:1031D0000020E1F7089510E0C3E6D0E004C0FE014E
:1031E0000E94F3162196C436D107C9F7F894FFCF91
:1031F000FF0103070F070301002D000404041C0056
:1032000000000004040407000000000000001C048B
:103210000404040000000704040404040404040477
:10322000040404000E19191F1F0E0000040E0E1FC7
:103230000004000100040404150E04002100210014
:103240000B000C0001000100001A03800000004088
:1032500000140054000601C400C400DC00C40000D7
:1032600000F7000601040008000800040004000440
:1032700000040004000000000098026B02AE03414D
:10328000026402510242020000000020049100AEDC
:1032900003900030003A00313A2054494D45204314
:1032A000555252454E5400323A20434F554E5449E0
:1032B0004E4700333A20414C41524D0043616E630A
:1032C000656C00505245535320444F4E4520544F97
:1032D00020414343455054002D2D2D2D2D2D2D2DB6
:1032E0002D2D2D2D2D2D2D2D2D2D0068006D002027
:0832F000202020202020000016
:107E0000112484B714BE81FFF0D085E080938100F7
:107E100082E08093C00088E18093C10086E0809377
:107E2000C20080E18093C4008EE0C9D0259A86E02C
:107E300020E33CEF91E0309385002093840096BBD3
:107E4000B09BFECF1D9AA8958150A9F7CC24DD24C4
:107E500088248394B5E0AB2EA1E19A2EF3E0BF2EE7
:107E6000A2D0813461F49FD0082FAFD0023811F036
:107E7000013811F484E001C083E08DD089C08234E0
:107E800011F484E103C0853419F485E0A6D080C0E4
:107E9000853579F488D0E82EFF2485D0082F10E0AE
:107EA000102F00270E291F29000F111F8ED06801E7
:107EB0006FC0863521F484E090D080E0DECF843638
:107EC00009F040C070D06FD0082F6DD080E0C81688
:107ED00080E7D80618F4F601B7BEE895C0E0D1E017
:107EE00062D089930C17E1F7F0E0CF16F0E7DF06D8
:107EF00018F0F601B7BEE89568D007B600FCFDCFD4
:107F0000A601A0E0B1E02C9130E011968C91119780
:107F100090E0982F8827822B932B1296FA010C0160
:107F200087BEE89511244E5F5F4FF1E0A038BF0790
:107F300051F7F601A7BEE89507B600FCFDCF97BE46
:107F4000E89526C08437B1F42ED02DD0F82E2BD052
:107F50003CD0F601EF2C8F010F5F1F4F84911BD097
:107F6000EA94F801C1F70894C11CD11CFA94CF0C13
:107F7000D11C0EC0853739F428D08EE10CD085E9AC
:107F80000AD08FE07ACF813511F488E018D01DD067
:107F900080E101D065CF982F8091C00085FFFCCF94
:107FA0009093C60008958091C00087FFFCCF809118
:107FB000C00084FD01C0A8958091C6000895E0E648
:107FC000F0E098E1908380830895EDDF803219F02E
:107FD00088E0F5DFFFCF84E1DECF1F93182FE3DFCA
:107FE0001150E9F7F2DF1F91089580E0E8DFEE27F6
:047FF000FF270994CA
:027FFE00040479
:0400000300007E007B
:00000001FF
